:020000040800F2
:10000000D0140020450100084D0100084F010008F0
:1000100051010008530100085501000800000000CC
:100020000000000000000000000000005701000870
:1000300059010008000000005B0100085D01000894
:100040005F0100085F0100085F0100085F01000810
:100050005F0100085F0100085F0100085F01000800
:100060005F0100085F010008390400085F01000813
:100070005F010008D9010008150200085F010008AF
:100080005F0100085F0100085F0100085F010008D0
:100090005F0100085F0100085F0100085F010008C0
:1000A0005F0100085F0100085F0100085F010008B0
:1000B0005F0100085F0100085F0100085F010008A0
:1000C0005F0100085F0100085F0100085F01000890
:1000D0005F0100083D0F00085F0100085F01000894
:1000E0005F0100085F0100085F0100085F01000870
:1000F0005F0100085F0100085F0100085F01000860
:100100005F0100085F0100085F0100085F0100084F
:100110005F0100085F0100085F0100085F0100083F
:100120005F0100085F0100085F0100085F0100082F
:10013000DFF80CD000F018F800480047A5120008BE
:10014000D01400200648804706480047FEE7FEE737
:10015000FEE7FEE7FEE7FEE7FEE7FEE7FEE7FEE777
:10016000DD0E000831010008064C074D06E0E0688E
:1001700040F0010394E8070098471034AC42F6D3EE
:10018000FFF7DAFFE41B0008041C000810B501218A
:10019000042000F075FB0121082000F071FB012113
:1001A000102000F06DFB0121402000F069FB0121CF
:1001B000880300F065FB0121080300F061FB0121C9
:1001C000084600F05DFB0121084600F049FB4FF4B2
:1001D000A06000F035FB10BD10B54FF4007000F0CA
:1001E000EDF8012810D100BF8021084800F0D7FBAE
:1001F0000128F9D00648006810B10548006880471A
:100200004FF4007000F01AF810BD000000300140FB
:100210001800002010B54FF4005000F0CFF801286E
:1002200009D10548006810B10348006880474FF4C1
:10023000005000F003F810BD1000002000F08051C5
:1002400011B10349086001E00249486070470000AD
:10025000040402400000024021B1026842F00102A1
:10026000026004E002684FF6FE731A4002607047B5
:1002700001684FF6FE72114001600021016041608B
:100280008160C1604B49884208D14A4908394968B0
:1002900041F00F01474A083A51608AE0454914315C
:1002A000884208D143490839496841F0F001414A80
:1002B000083A51607DE03F492831884208D13D49E4
:1002C0000839496841F470613A4A083A516070E06F
:1002D00038493C31884208D136490839496841F4E7
:1002E0007041344A083A516063E0324950318842E3
:1002F00008D130490839496841F470212D4A083A3B
:10030000516056E02B496431884208D129490839A7
:10031000496841F47001274A083A516049E025498B
:100320007831884208D123490839496841F0706121
:10033000204A083A51603CE01F49884206D1011F1B
:10034000096841F00F01021F116032E01A491431AF
:10035000884208D11849091F096841F0F001164A7E
:10036000121F116025E014492831884208D1124932
:10037000091F096841F470610F4A121F116018E0EB
:100380000D493C31884208D10B49091F096841F4E5
:100390007041094A121F11600BE007495031884231
:1003A00007D10549091F096841F47021024A121F4B
:1003B0001160704708000240080402400146002016
:1003C000002201F0805313B1054B1A6801E0054B80
:1003D0001A6802EA01030BB1012000E00020704717
:1003E00000040240000002401AB103680B4303609E
:1003F00002E003688B430360704710B50022026877
:1004000047F6F0739A430C6A8B6823430C692343C5
:100410004C6923438C692343CC6923434C6A2343AF
:100420008C6A23431A430260CB6843600B68836085
:100430004B68C36010BD000010B5102000F01AF822
:1004400001280DD100F0C8F838B10648006810B195
:1004500004480068804700F0D9F8102000F004F844
:1004600010BD000004000020014908607047000032
:1004700014040140014600200022074B1B6803EAD8
:100480000102054B14331B680B4013B10AB1012064
:1004900000E0002070470000000401402DE9F04119
:1004A000024600250026002000230024002791F8A2
:1004B00003C00CF00F0591F803C00CF0100CBCF158
:1004C000000F03D091F802C04CEA050591F800C076
:1004D000BCF1000F31D0146800202BE04FF0010C6C
:1004E0000CFA00F3B1F800C00CEA03069E4220D1DA
:1004F00083004FF00F0C0CFA03F7BC4305FA03FC22
:100500004CEA040491F803C0BCF1280F06D14FF067
:10051000010C0CFA00FCC2F814C00AE091F803C008
:10052000BCF1480F05D14FF0010C0CFA00FCC2F8E9
:1005300010C0401C0828D1D31460B1F800C0BCF131
:10054000FF0F34DD546800202EE000F1080C4FF05E
:10055000010808FA0CF3B1F800C00CEA03069E4249
:1005600021D183004FF00F0C0CFA03F7BC4305FABE
:1005700003FC4CEA040491F803C0BCF1280F05D138
:1005800000F1080C08FA0CF8C2F8148091F803C0C6
:10059000BCF1480F07D100F1080C4FF0010808FA30
:1005A0000CF8C2F81080401C0828CED35460BDE877
:1005B000F0810246002093680B400BB1012000E05F
:1005C0000020704741617047016170470AB10161C5
:1005D00000E041617047000010B510210A48FFF7A4
:1005E000E8FF01280DD10A2000F04FFE1021064837
:1005F000FFF7DFFF012804D10A2000F046FE0120AA
:1006000010BD0020FCE700000018014010B500BF3D
:10061000FFF7E2FF0028FBD110BD000008B518204D
:100620008DF80300A020ADF8000003208DF8020033
:1006300069460448FFF732FF0122A0210148FFF775
:10064000C5FF08BD0008014010B5FFF7E7FF00F047
:100650002FF800F001F810BD00B585B04FF4404010
:10066000ADF800004FF48270ADF802000020ADF844
:100670000400ADF80600ADF808004FF40070ADF8C6
:100680000A000820ADF80C000020ADF80E00694605
:10069000064800F08FF901220221044800F076F9A3
:1006A0000121024800F066F905B000BD00300140AC
:1006B00008B50D208DF8000003208DF80100012001
:1006C0008DF802008DF80300684600F081F808BD3F
:1006D00001490860704700001800002030B58BB059
:1006E00005460C4600211448FFF7B6FD1248FFF7F7
:1006F000BFFD124800900195102002900394002045
:1007000004908020059000200690079008904FF4F8
:100710008050099000200A9069460748FFF76DFE57
:10072000012202210448FFF75FFE01210248FFF782
:1007300093FD0BB030BD0000300002400C30014092
:1007400070B505460E4600240CE000BF02210A48A1
:1007500000F025F90028F9D0295D074800F028F9B4
:10076000601C84B2B442F0DB00BF8021024800F07C
:1007700016F90128F9D070BD0030014008B51020ED
:100780008DF803002020ADF8000003208DF8020052
:1007900069460448FFF782FE20210248FFF714FF54
:1007A00008BD0000000C014010B50748007880F03B
:1007B0000100054908700846007880F001022021F8
:1007C0000248FFF703FF10BD01000020000C0140AC
:1007D00070B5002100230F22C47804B3154C24689F
:1007E00004F4E064C4F5E064210AC1F10403CA40E2
:1007F000447804FA03F184781440214309010E4C33
:100800000678A155047804F01F050124AC40057852
:100810006D11AD0005F1E025C5F8004109E004784F
:1008200004F01F050124AC40044D0678761145F80C
:10083000264070BD0CED00E000E400E080E100E047
:1008400002490143024A1160704700000000FA05A6
:100850000CED00E001200149087070470000002005
:1008600029B1064A52690243044B5A6104E0034A23
:1008700052698243014B5A617047000000100240E8
:1008800029B1064A92690243044B9A6104E0034A83
:1008900092698243014B9A61704700000010024048
:1008A00030B500210022002400232D4D6D6805F095
:1008B0000C0121B1042905D0082923D105E0294DD7
:1008C000056022E0274D05601FE0254D6D6805F4A9
:1008D0007012234D6D6805F48034022505EB9242B9
:1008E0001CB9214D554305600BE01D4D6D6805F4A5
:1008F00000351DB11C4D5543056002E0194D5543AF
:10090000056002E0174D056000BF00BF144D6D6823
:1009100005F0F0010909154D6B5C0568DD40456087
:100920000F4D6D6805F4E061090A104D6B5C456878
:10093000DD4085600A4D6D6805F46051C90A0B4DB4
:100940006B5C4568DD40C560054D6D6805F4404150
:10095000890B074D6B5CC568B5FBF3F5056130BDD0
:100960000010024000127A0000093D00380000200B
:100970004800002021B1028842F04002028004E0D9
:1009800002884FF6BF731A40028070471AB18388FD
:100990000B43838002E083888B4383807047024649
:1009A000002013890B400BB1012000E000207047AC
:1009B0008181704710B50022028802F441520B88F1
:1009C0004C8823438C882343CC8823430C892343BE
:1009D0004C8923438C892343CC8923431A430280C7
:1009E000838B4FF2FF74234083830B8A038210BDF5
:1009F00001200149087070471C00002010B54FF419
:100A000080610248FFF7E0FD10BD0000000C0140CE
:100A100070B5044619E014F8016B14F8015BFF2E61
:100A200008D1FF2D00D111E005EB8501480000F051
:100A30002CFC09E0304600F079F9002D03DD294651
:100A4000204600F07FF92C4400BFE4E700BF70BDF2
:100A50002DE9F84F04460D4616461F46DDF828B02E
:100A6000802C01DA802D01DBBDE8F88FA019401E33
:100A7000802802DBC4F1800086B2E819401E80287D
:100A800002DBC5F1800087B200F0BEF805EB070C71
:100A9000ACF1010C0CF0FF0304EB060CACF1010C03
:100AA0000CF0FF02E9B2E0B200F0B6F82C2000F042
:100AB0003DF94FEA2B208DF800000BF0FF008DF878
:100AC00001004FF400684FF000091EE006FB07F03C
:100AD000A0EB090AC24500D9C246B9F1000F0ED1F8
:100AE0000E48002108E09DF8002000F8012B9DF839
:100AF000012000F8012B491C5145F4D300BF4FEAF7
:100B00004A01064800F01EF9C14406FB07F04845BB
:100B1000DCD800F0A7F800BFA6E70000CC0000205A
:100B200038B5044680231A46002108460094FFF792
:100B30008FFF38BD08B503208DF8020010208DF816
:100B40000300ADF8000069461748FFF7A7FC012233
:100B500010211548FFF73AFD4020ADF80000694626
:100B60001148FFF79BFC002240210F48FFF72EFDA4
:100B70001020ADF8000069460C48FFF78FFC0022FA
:100B800010210A48FFF722FD4FF48060ADF8000005
:100B900069460748FFF782FC00224FF48061044851
:100BA000FFF714FD08BD00000008014000100140DF
:100BB000000C014010B5FFF747FD0848FFF788FD1E
:100BC000FFF7B8FF00F00EF800F01EF80448FFF73A
:100BD0001FFF00F047F8FFF711FF10BDF1090008F3
:100BE000F412000810B510210648FFF7EBFC0220B4
:100BF00000F04BFB10210348FFF7E6FC962000F0C5
:100C000044FB10BD0010014010B510210148FFF752
:100C1000D9FC10BD00080140F8B507460C46154642
:100C20001E462A2000F082F800200090B81CC0B2B6
:100C30008DF80100A81CC0B28DF80300042168469D
:100C400000F080F82B2000F071F8E01CC0B28DF8A5
:100C50000100F01CC0B28DF803000421684600F0CA
:100C600071F8F8BD10B510210148FFF7ADFC10BDBB
:100C7000000801402DE9F05F06460F4690461D46EC
:100C8000DDE90A9AFFF7C0FF95F802C0BC44ACF159
:100C9000010C0CF0FF0395F800C0B444ACF1010C5A
:100CA0000CF0FF02F9B2F0B2FFF7B6FF2988C81DB9
:100CB000C11700EB51714FEAE10B1B4C002128E0FA
:100CC000688800FB08F06B6800FB0B3001FB0B022F
:100CD00000201AE002EBD00C9CF8003000F0070C6A
:100CE00003FA0CFC0CF0800CBCF1000F06D04FEAAC
:100CF000292C04F801CB04F8019B05E04FEA2A2CCB
:100D000004F801CB04F801AB401C2B888342E1D8E6
:100D1000491C68888842D3D80348211A00F012F889
:100D2000FFF7A0FFBDE8F09FCC00002001B54021F7
:100D30000348FFF747FC01216846FFF701FD08BDA6
:100D40000008014070B505460C4640210748FFF7F2
:100D50003BFC002006490870A1B22846FFF7BEFC04
:100D600000BF034800780028FBD070BD0008014098
:100D70001C0000202DE9FC4706460F4614461D4680
:100D8000DDE90A89EAB2234639463046CDE90089D1
:100D9000FFF770FFBDE8FC872DE9FC5F06460F46B4
:100DA00014469846DDE90DABDDF83090454618E075
:100DB00020883044802808DB00266088384487B2C9
:100DC00060883844802800DB10E02B4622463946F4
:100DD0003046CDE900ABFFF7CDFF2088304486B226
:100DE0006D1C4D4502D2A068A842E1D800BFBDE805
:100DF000FC9F10B500F002F810BD00000CB50020FB
:100E0000019000903348006840F480303149086018
:100E100000BF3048006800F4003000900198401C8A
:100E20000190009818B90198B0F5A06FF1D1294848
:100E3000006800F4003010B10120009001E00020B3
:100E400000900098012843D12348006840F010002A
:100E5000214908600846006820F00700086008463D
:100E6000006840F0020008601A484068194948606C
:100E70000846406848600846406840F48060486022
:100E80000846406820F47C1048600846406840F4FA
:100E9000E81048600846006840F08070086000BFB5
:100EA0000C48006800F000700028F9D0094840683C
:100EB00020F00300074948600846406840F00200FF
:100EC000486000BF0348406800F00C000828F9D1D2
:100ED0000CBD0000001002400020024010B5134875
:100EE000006840F001001149086008464068104958
:100EF00008400E494860084600680E4908400B4902
:100F000008600846006820F48020086008464068B1
:100F100020F4FE0048604FF41F008860FFF769FF6F
:100F20004FF000600449086010BD0000001002404E
:100F30000000FFF8FFFFF6FE08ED00E010B540F2FC
:100F400025511E4800F059F8012836D11B4800F001
:100F50000FF9C4B21A48007840B9402C2CD10120B6
:100F60001749087000201749087025E014480078D8
:100F700001280FD10D2C03D10220114908701BE06C
:100F800011481049097844540E480078401C0D4916
:100F9000087011E00A48007802280DD10A2C0BD104
:100FA0000020074908700849064A12788854012031
:100FB00006490870FFF7F8FB00BF10BD003801407C
:100FC00014000020150000204C0000200800002024
:100FD00021B1828942F40052828104E082894DF677
:100FE000FF731A40828170471AB1838A0B43838250
:100FF00002E0838A8B438382704770B502460024E7
:1010000000230025002040F66A16B14200D100BF3F
:10101000C1F3421501F01F03012606FA03F3012D67
:1010200002D19689334006E0022D02D1168A334060
:1010300001E0968A33400C12012606FA04F4168861
:10104000344013B10CB1012000E0002070BDF0B5B8
:101050000346002400260025002040F66A17B94206
:1010600000D100BF1846C1F3421401F01F0601274A
:1010700007FA06F5012C01D10C3004E0022C01D155
:10108000103000E014301AB107682F43076002E007
:101090000768AF430760F0BD2DE9F04786B005460D
:1010A0000E460024A24600BFA1460027B08900B129
:1010B00000BF2F462C8A4CF6FF700440F088044392
:1010C0002C82AC894EF6F3100440B0883189084375
:1010D000718908430443AC81AC8A4FF6FF40044059
:1010E000B0890443AC8201A8FFF7DAFB1F488742AE
:1010F00002D1DDF810A001E0DDF80CA0A88900F411
:10110000004040B10AEBCA0000EB0A103168490008
:10111000B0FBF1F807E00AEBCA0000EB0A103168F7
:101120008900B0FBF1F86420B8FBF0F0040120095D
:10113000642101FB1089A88900F4004040B13220ED
:1011400000EBC900B0FBF1F000F00700044308E039
:10115000322000EB09106421B0FBF1F000F00F0029
:1011600004432C8106B0BDE8F08700000038014040
:1011700001468888C0F308007047000010B500F0F1
:1011800017F800F04DF800F033F8012240F2255135
:101190000648FFF75CFF012280210448FFF724FF87
:1011A00001210248FFF714FF10BD00000038014084
:1011B00008B518208DF803004FF40070ADF800005A
:1011C00003208DF8020069460848FFF767F94820B8
:1011D0008DF803004FF48060ADF8000003208DF817
:1011E000020069460148FFF759F908BD00080140AF
:1011F0001FB54FF4E13000900020ADF80400ADF8C9
:101200000600ADF80800ADF80C000C20ADF80A009F
:1012100069460248FFF740FF1FBD0000003801404B
:1012200008B525208DF8000001208DF80100002070
:101230008DF8020001208DF803006846FFF7C8FA18
:101240000E208DF8000003208DF8010000208DF89D
:10125000020001208DF803006846FFF7B9FA08BDC7
:1012600001490860704700001000002002E008C833
:10127000121F08C1002AFAD170477047002001E010
:1012800001C1121F002AFBD17047002107E0002294
:1012900001E000BF521CB2F5E15FFAD3491C814264
:1012A000F5D370470EB5FEF771FFFFF767FAFFF74A
:1012B00065FF0E48FFF7D4FFFFF77CFC4FF4FC609E
:1012C000FFF72EFC11E04FF4FC604FF4784104224C
:1012D0000023CDE900210290054A14211846FFF7AA
:1012E0005BFD4FF47A70FFF7D0FFECE7550800087C
:1012F0002C0000201100FF0CB103012C2DB20301C2
:101300002C2DB306012C2D012C2DB40107C003A2F6
:101310000284C101C5C2020A00C3028A2AC4028A29
:10132000EEC5010E3601C8E0100F1A0F182F282045
:10133000221F1B233700070210E1100F1B0F17336A
:101340002C292E3030393F000703102A04000000FA
:101350007F2B040000009FF601003A01052900FFE1
:10136000FF0000000000000000000000000000007E
:1013700000007F40404040404040404040407F00AF
:10138000000000000000000000000000000000005D
:1013900000007F40404040404040404040407F008F
:1013A00000007F40404040404040404040407F007F
:1013B00000007F40404040404040404040407F006F
:1013C00000007F40404040404040404040407F005F
:1013D00000007F40404040404040404040407F004F
:1013E00000007F40404040404040404040407F003F
:1013F00000000000000000000000000000000000ED
:1014000000000000000000000000000000000000DC
:1014100000000000000000000000000000000000CC
:1014200000007F40404040404040404040407F00FE
:1014300000007F40404040404040404040407F00EE
:1014400000007F40404040404040404040407F00DE
:1014500000007F40404040404040404040407F00CE
:1014600000007F40404040404040404040407F00BE
:1014700000007F40404040404040404040407F00AE
:1014800000007F40404040404040404040407F009E
:1014900000007F40404040404040404040407F008E
:1014A00000007F40404040404040404040407F007E
:1014B00000007F40404040404040404040407F006E
:1014C00000007F40404040404040404040407F005E
:1014D00000007F40404040404040404040407F004E
:1014E00000007F40404040404040404040407F003E
:1014F00000007F40404040404040404040407F002E
:1015000000007F40404040404040404040407F001D
:1015100000007F40404040404040404040407F000D
:1015200000000000000000000000000000000000BB
:1015300000000000000000000000000000000000AB
:10154000000000000000000000000000000000009B
:10155000000000000000000000000000000000008B
:10156000000000000000000000000000000000007B
:1015700000000000101010101010100000101000DB
:1015800000001224244800000000000000000000B9
:10159000000000001212127E2424247E2424240041
:1015A000000000083C4A4A48380C0A0A4A4A3C08EB
:1015B0000800000044A4A8A8B0541A2A2A4A4400EB
:1015C0000000000030484848506EA4949889760086
:1015D000000060202040000000000000000000002B
:1015E000000002040808101010101010080804026F
:1015F00000004020101008080808080810102040BB
:1016000000000000001010D63838D610100000007E
:101610000000000000000808087F0808080000001B
:10162000000000000000000000000000006020201A
:101630004000000000000000007E000000000000EC
:1016400000000000000000000000000000606000DA
:10165000000000020404040808101010202040407C
:101660000000000018244242424242424224180034
:1016700000000000083808080808080808083E00AC
:10168000000000003C4242420204081020427E005A
:10169000000000003C4242020418040242423C00A6
:1016A00000000000040C0C142424447F04041F00D8
:1016B000000000007E40404078440202424438006E
:1016C00000000000182440405C62424242221C009C
:1016D000000000007E4204040808101010101000E2
:1016E000000000003C4242422418244242423C0096
:1016F000000000003844424242463A0202241800E8
:101700000000000000000018180000000018180079
:101710000000000000000000100000000000101099
:1017200010000000020408102040201008040200ED
:10173000000000000000007E00007E0000000000AD
:10174000000000004020100804020408102040009F
:10175000000000003C42426204080808001818001B
:101760000000000038445AAAAAAAAAAA5C423C0077
:10177000000000001010182828243C444242E700D2
:1017800000000000F8444444784442424244F800D7
:10179000000000003E424280808080804244380049
:1017A00000000000F8444242424242424244F800F3
:1017B00000000000FC424848784848404242FC0093
:1017C00000000000FC424848784848404040E000A3
:1017D000000000003C44448080808E8444443800F3
:1017E00000000000E7424242427E42424242E7009D
:1017F000000000007C1010101010101010107C0061
:10180000000000003E0808080808080808080888C2
:10181000F0000000EE444850705048484444EE0048
:1018200000000000E0404040404040404042FE0098
:1018300000000000EE6C6C6C6C6C54545454D60078
:1018400000000000C7626252524A4A4A4646E2001D
:101850000000000038448282828282828244380002
:1018600000000000FC424242427C40404040E00018
:10187000000000003844828282828282B24C3806A4
:1018800000000000FC4242427C4848444442E300DD
:10189000000000003E4242402018040242427C0008
:1018A00000000000FE9210101010101010103800F0
:1018B00000000000E74242424242424242423C00B3
:1018C00000000000E7424244242428281810100099
:1018D00000000000D654545454546C282828280082
:1018E00000000000E7422424181818242442E700CE
:1018F00000000000EE44442828101010101038009A
:10190000000000007E840408081020204242FC00F1
:1019100000001E1010101010101010101010101ECB
:1019200000000040202020101010080804040402C9
:101930000200780808080808080808080808087855
:10194000000018240000000000000000000000005B
:101950000000000000000000000000000000000087
:10196000FF00601000000000000000000000000008
:10197000000000000000000038440C34444C3600E5
:101980000000000000C040405864424242645800D9
:1019900000000000000000001C22404040221C000B
:1019A00000000000000602023E42424242463B0066
:1019B00000000000000000003C42427E40423C002B
:1019C00000000000000C12107C10101010107C00A1
:1019D00000000000000000003E444438403C424209
:1019E0003C00000000C040405C6242424242E700CE
:1019F00000000000303000007010101010107C004B
:101A0000000000000C0C00001C0404040404044446
:101A10007800000000C040404E4850704844EE003E
:101A200000000000107010101010101010107C003A
:101A30000000000000000000FE4949494949ED004E
:101A40000000000000000000DC6242424242E70069
:101A500000000000000000003C42424242423C00C4
:101A60000000000000000000D86442424264584078
:101A7000E0000000000000001A26424242261A023E
:101A80000700000000000000EE3220202020F800B7
:101A900000000000000000003E42403C02427C008A
:101AA00000000000000010107C10101010120C003C
:101AB0000000000000000000C642424242463B00D7
:101AC0000000000000000000EE4444282810100030
:101AD0000000000000000000DB894A5A5424240062
:101AE00000000000000000007624181818246E0082
:101AF0000000000000000000E74224241818101025
:101B000060000000000000007E44081010227E00EB
:101B1000000003040404040404080404040404038B
:101B2000000808080808080808080808080808083D
:101B30000800C0202020202020102020202020C0AD
:101B400000205A0400000000000000000000000017
:101B50000000000000000000000000000000000085
:101B60000008800880088011FE11023204342050E1
:101B70002091281124122412221422102010A010C7
:101B800040100010FC10041008FC10242024202514
:101B9000FE24204820282010202820442084A00053
:101BA0004002201220122012201220FFFE122012CA
:101BB000201220122013E01000100010001FFC0063
:101BC0000000001FF0111011101FF0111011101F54
:101BD000F002800C603458C44604400840084010AD
:101BE00040000000041C0008000000204C00000021
:101BF0006C120008501C00084C00002084140000E7
:101C00007C1200080100000000000000000000003D
:101C100000000000000000000000000000000000C4
:101C20000000000008001000611300080000000020
:101C300010001000611B00080400000000000000FC
:101C4000010203040102030406070809020406084E
:0400000508000131BD
:00000001FF
