:020000040800F2
:1000000070240020450100084D0100084F01000840
:1000100051010008530100085501000800000000CC
:100020000000000000000000000000005701000870
:1000300059010008000000005B0100085D01000894
:100040005F0100085F0100085F0100085F01000810
:100050005F0100085F0100085F0100085F01000800
:100060005F0100085F010008410D00085F01000802
:100070005F010008B9070008F50700085F010008E4
:100080005F0100085F0100085F0100085F010008D0
:100090005F0100085F0100085F0100085F010008C0
:1000A0005F0100085F0100085F0100085F010008B0
:1000B000511A00085F0100085F0100085F01000895
:1000C0005F0100085F0100085F0100085F01000890
:1000D0005F0100085F010008A11A00085F01000825
:1000E0005F0100085F0100085F0100085F01000870
:1000F0005F0100085F0100085F0100085F01000860
:100100005F0100085F0100085F0100085F0100084F
:100110005F0100085F0100085F0100085F0100083F
:100120005F0100085F0100085F0100085F0100082F
:10013000DFF80CD000F054FA004800478125000891
:10014000702400200648804706480047FEE7FEE787
:10015000FEE7FEE7FEE7FEE7FEE7FEE7FEE7FEE777
:10016000F11900083101000830B505462A460B4652
:1001700012F8010B13F8014B08B1A042F8D01CB1E2
:10018000002802D06D1CF1E7284630BD10B50446AA
:1001900004E00B7800F8013B03B1491C521EF8D271
:1001A000204610BDCAB2401E10F8011F8A4202D07C
:1001B0000029F9D100207047421C10F8011B0029CA
:1001C000FBD1801A704730B504460020034600E09A
:1001D0005B1C934203D2E05CCD5C401BF8D030BD89
:1001E00030B50B46014600202022012409E021FA07
:1001F00002F59D4205D303FA02F5491B04FA02F504
:100200002844151EA2F10102F1DC30BD2DE9F05F9A
:100210000546002092469B46884606468146402475
:100220001BE0284641464746224600F0FAF953466D
:100230005A46C01A914110D311461846224600F082
:10024000E1F92D1A67EB01084F46224601200021F3
:1002500000F0D8F917EB00094E41201EA4F101046B
:10026000DFDC484631462A464346BDE8F09F2DE98B
:10027000FE4F804681EA0300C00F0C46009021F03B
:10028000004123F00045B8EB0200A94105D24046E9
:10029000214690461C460B46024623F00040104380
:1002A00047D0270DC7F30A00C3F30A510290401A42
:1002B000019040286BDAC3F3130040F4801B0098D0
:1002C000924620B10023D2EB030A63EB0B0B01989B
:1002D0005946C0F14002504600F094F906460D46DA
:1002E00050465946019A00F0ACF910EB0800614104
:1002F000002487EA115284EAE7731A4340D0009A37
:1003000062B3019A012A4FEA075215DC001B61EB28
:1003100002014FF0004202EA0752CDE90042001C00
:1003200041F5801132462B4600F0ACF903B0BDE830
:10033000F08F40462146F9E7001B61EB0201001CEB
:1003400041F5801300185B412018A2F5001747EB18
:10035000030140EAD570B6196D4111E06D084FEA0E
:10036000360645EAC0754FEA0752001B61EB0201F1
:10037000001C41F5801149084FEA30000019514135
:1003800032462B4603B0BDE8F04F00F06CB9009840
:10039000012240000023D0EB020263EBE0730098DF
:1003A00021464FEAE074B8EB000061EB0401E9E795
:1003B00083F000435BE781F0004158E72DE9FE4FF1
:1003C00081EA030404F0004421F0004100944FF05E
:1003D000000B23F0004350EA01045ED052EA03040C
:1003E0005BD0C3F30A54C1F30A552C44A4F2F3348E
:1003F0000194A0FB0254C1F3130141F48011C3F333
:10040000130343F4801301FB024400FB034E840AF0
:10041000970A44EA815447EA8357A4FB0768029588
:100420008D0A05FB07854FEA932C04FB0C54270526
:10043000029D4FEA065847EA1637B5EB08056EEB02
:10044000070C870E920E47EA811742EA8312A7FB38
:100450000201B6EB0B0164EB00042B0D43EA0C33F5
:100460005E1844EB1C50DA465146E7FB0201C5F327
:1004700013044FEA0B3343EA14534FEA0432019C4E
:1004800043EA0603A4F10C040294009CCDE900B4F5
:1004900000F0F8F803B0BDE8F08F00200146F9E75E
:1004A0002DE9F04D81EA030404F0004B21F00045F2
:1004B00014464FF0000A23F0004150EA050220D014
:1004C00054EA01021DD0C5F30A570246C5F31303CF
:1004D000C1F31300C1F30A5640F4801543F48013AE
:1004E000A7EB0608101BD64608F2FD3873EB050093
:1004F00002D308F1010801E092185B41B8F1000F46
:1005000003DA00200146BDE8F08D00204FF4801191
:10051000064684460EE0171B73EB050705D3121B36
:1005200063EB050306434CEA010C49084FEA30002F
:1005300092185B4150EA0107EDD152EA030012D054
:1005400082EA040083EA0501084305D0101BAB4191
:1005500006D20122002306E000224FF0004302E011
:100560006FF0010253101AEB06004CEB085110EB30
:100570000A0041EB0B01BDE8F04D00F074B8C1F387
:100580000A52C1F3130140F2FF3341F480119A4241
:1005900002DA00200146704740F233439A42A2F249
:1005A000334202DC524200F03CB800F02BB80000AD
:1005B00030B5041E71F1000404DB4FF000444042EA
:1005C00064EB0101141E73F1000405DB1C464FF0BF
:1005D0000043524263EB0403994208BF904230BD8E
:1005E000064C074D06E0E06840F0010394E8070080
:1005F00098471034AC42F6D3FFF79EFD4030000818
:1006000060300008202A04DB203A00FA02F10020C2
:1006100070479140C2F1200320FA03F31943904040
:100620007047202A04DB203A21FA02F000217047AB
:1006300021FA02F3D040C2F120029140084319464A
:100640007047202A06DBCB17203A41FA02F043EA32
:10065000E07306E041FA02F3D040C2F1200291407B
:1006600008431946704710B5141E73F1000408DAE8
:10067000401C41F1000192185B411A4301D120F066
:10068000010010BD2DE9F04D92469B4611B1B1FA23
:1006900081F202E0B0FA80F220329046FFF7B2FF1A
:1006A00004460F4640EA0A0041EA0B0153465A4607
:1006B000084313D0114653EA010019D0C8F1400293
:1006C0005046FFF7AEFF05460E4650465946424695
:1006D000FFF798FF084305D0012004E02046394683
:1006E000BDE8F08D0020054346EAE0762C43374311
:1006F0000A986305E40AA0EB08000022FD0A44EA18
:1007000047540A3002D500200146E9E701051019D7
:100710006941DDE9084500196941BDE8F04DA2E7EE
:1007200010B5012000F0A2FD002000F09FFD10BDDB
:1007300010B50121042000F089FD0121082000F0FE
:1007400085FD0121102000F081FD0121402000F0F5
:100750007DFD0121084600F069FD0121480400F0FB
:1007600065FD0121880300F071FD0121080300F0FF
:100770006DFD0121084600F069FD0121084600F0E9
:1007800045FD0121080700F051FD0121C80600F0D8
:100790004DFD012000F034FDFFF7C2FF012000F005
:1007A000F3FD00BF412000F0D1FD0028FAD04FF446
:1007B000A06000F0B5FC10BD10B54FF4007000F063
:1007C000EDF8012810D100BF8021084800F06DFE2F
:1007D0000128F9D00648006810B105480068804734
:1007E0004FF4007000F01AF810BD00000030014016
:1007F0001000002010B54FF4005000F0CFF8012891
:1008000009D10548006810B10348006880474FF4DB
:10081000005000F003F810BD1C00002000F08051D3
:1008200011B10349086001E00249486070470000C7
:10083000040402400000024021B1026842F00102BB
:10084000026004E002684FF6FE731A4002607047CF
:1008500001684FF6FE7211400160002101604160A5
:100860008160C1604B49884208D14A4908394968CA
:1008700041F00F01474A083A51608AE04549143176
:10088000884208D143490839496841F0F001414A9A
:10089000083A51607DE03F492831884208D13D49FE
:1008A0000839496841F470613A4A083A516070E089
:1008B00038493C31884208D136490839496841F401
:1008C0007041344A083A516063E0324950318842FD
:1008D00008D130490839496841F470212D4A083A55
:1008E000516056E02B496431884208D129490839C2
:1008F000496841F47001274A083A516049E02549A6
:100900007831884208D123490839496841F070613B
:10091000204A083A51603CE01F49884206D1011F35
:10092000096841F00F01021F116032E01A491431C9
:10093000884208D11849091F096841F0F001164A98
:10094000121F116025E014492831884208D112494C
:10095000091F096841F470610F4A121F116018E005
:100960000D493C31884208D10B49091F096841F4FF
:100970007041094A121F11600BE00749503188424B
:1009800007D10549091F096841F47021024A121F65
:100990001160704708000240080402400146002030
:1009A000002201F0805313B1054B1A6801E0054B9A
:1009B0001A6802EA01030BB1012000E00020704731
:1009C00000040240000002401AB103680B430360B8
:1009D00002E003688B430360704710B50022026891
:1009E00047F6F0739A430C6A8B6823430C692343E0
:1009F0004C6923438C692343CC6923434C6A2343CA
:100A00008C6A23431A430260CB6843600B6883609F
:100A10004B68C36010BD00B5034603E04FF47A7025
:100A200000F006F8181EA3F10103F7D100BD000085
:100A30000D4909680D4AB1FBF2F14143491E4FF0DF
:100A4000E0225161002191610521116100BF4FF049
:100A5000E021096901F480310029F8D000214FF02C
:100A6000E0221161704700004400002040420F0066
:100A7000F0B5A1B004460D4616461F46234609A20E
:100A8000802101A801F004F942F210733246294690
:100A900001A800F059F810B9002021B0F0BD0120E4
:100AA000FBE7000041542B48545450434745543D04
:100AB000222573220000000010B5002004490870B0
:100AC00000F0D2F8034800F00DF900F005F810BD71
:100AD000280000203511000810B54FF47A73002269
:100AE000114610A000F030F808B9002010BD4FF4F6
:100AF000FA60FFF790FF4FF47A73002211460CA0C2
:100B000000F022F808B90020F0E74FF47A730022D1
:100B1000114609A000F018F808B90020E6E7012006
:100B2000E4E7000041542B524553544F5245000016
:100B3000415445300000000041542B535953535445
:100B40004F52453D300000002DE9F04107460C466C
:100B500015461E46002015490860012014490870FA
:100B6000022014490870384600F0DFF812A000F0A7
:100B7000DCF802E00120FFF74EFF0D48007818B1C5
:100B8000301EA6F10106F5D10020094908700CB10C
:100B90000A48206015B105480068286005480078BB
:100BA00010B90120BDE8F0810020FBE724000020FF
:100BB00028000020290000200D0A00006C00002001
:100BC00030B591B004460D46234609A2402101A844
:100BD000009501F05DF842F210730022114601A861
:100BE000FFF7B2FF10B9002011B030BD0120FBE7C4
:100BF00041542B43574A41503D222573222C222534
:100C00007322000010B54FF47A730022114604A03D
:100C1000FFF79AFF08B9002010BD0120FCE7000093
:100C200041542B43574D4F44453D310008B51820E2
:100C30008DF803000420ADF8000003208DF80200B9
:100C40006946084800F0AEF848208DF803000820F7
:100C5000ADF8000003208DF802006946014800F05D
:100C6000A1F808BD0008014010B5FFF7DFFF00F054
:100C700027F800F00DF8012240F22551034800F05A
:100C80006CFF0121014800F025FF10BD0044004029
:100C90001FB54FF4E13000900020ADF80400ADF82E
:100CA0000600ADF80800ADF80C000C20ADF80A0005
:100CB0006946024800F076FF1FBD00000044004076
:100CC00008B526208DF8000001208DF801000020D5
:100CD0008DF8020001208DF80300684600F0E8F965
:100CE00008BD00000149086070470000180000209E
:100CF00010B504462146054800F0C5FF00BF80211D
:100D0000024800F0F3FE0028F9D010BD0044004076
:100D100070B505460E46002404E0285DFFF7E8FFA5
:100D2000601C84B2B442F8DB70BD70B50446204646
:100D3000FFF742FA85B229462046FFF7E9FF70BD6A
:100D400010B5102000F01AF801280DD100F0C8F8F5
:100D500038B10648006810B104480068804700F0C8
:100D6000D9F8102000F004F810BD00000C0000209D
:100D7000014908607047000014040140014600204A
:100D80000022074B1B6803EA0102054B14331B6862
:100D90000B4013B10AB1012000E0002070470000B1
:100DA000000401402DE9F041024600250026002004
:100DB00000230024002791F803C00CF00F0591F8E0
:100DC00003C00CF0100CBCF1000F03D091F802C06E
:100DD0004CEA050591F800C0BCF1000F31D0146851
:100DE00000202BE04FF0010C0CFA00F3B1F800C02A
:100DF0000CEA03069E4220D183004FF00F0C0CFA40
:100E000003F7BC4305FA03FC4CEA040491F803C061
:100E1000BCF1280F06D14FF0010C0CFA00FCC2F80F
:100E200014C00AE091F803C0BCF1480F05D14FF09F
:100E3000010C0CFA00FCC2F810C0401C0828D1D3E9
:100E40001460B1F800C0BCF1FF0F34DD546800201D
:100E50002EE000F1080C4FF0010808FA0CF3B1F88D
:100E600000C00CEA03069E4221D183004FF00F0C14
:100E70000CFA03F7BC4305FA03FC4CEA040491F8AE
:100E800003C0BCF1280F05D100F1080C08FA0CF8DA
:100E9000C2F8148091F803C0BCF1480F07D100F1EB
:100EA000080C4FF0010808FA0CF8C2F81080401C3A
:100EB0000828CED35460BDE8F08102460020936834
:100EC0000B400BB1012000E00020704741617047EA
:100ED000016170470AB1016100E0416170470000A3
:100EE00010B510210A48FFF7E8FF01280DD10A20AC
:100EF000FFF791FD10210648FFF7DFFF012804D11D
:100F00000A20FFF788FD012010BD0020FCE700004B
:100F10000018014010B500BFFFF7E2FF0028FBD129
:100F200010BD000008B518208DF80300A020ADF812
:100F3000000003208DF8020069460448FFF732FFE5
:100F40000122A0210148FFF7C5FF08BD00080140AC
:100F500010B5FFF7E7FF00F02FF800F001F810BD23
:100F600000B585B04FF44040ADF800004FF48270FA
:100F7000ADF802000020ADF80400ADF80600ADF8B1
:100F800008004FF40070ADF80A000820ADF80C001E
:100F90000020ADF80E006946064800F091FA0122E3
:100FA0000221044800F078FA0121024800F068FAB2
:100FB00005B000BD0030014008B50D208DF80000DF
:100FC00003208DF8010001208DF802008DF8030048
:100FD000684600F06DF808BD0149086070470000E0
:100FE0001000002030B58BB005460C460021144897
:100FF000FFF722FC1248FFF72BFC124800900195E6
:10100000102002900394002004908020059000207E
:101010000690079008904FF48050099000200A90A5
:1010200069460748FFF7D9FC012202210448FFF76F
:10103000CBFC01210248FFF7FFFB0BB030BD0000E5
:10104000300002400C30014070B505460E460024C9
:101050000CE000BF02210A4800F027FA0028F9D06E
:10106000295D074800F02AFA601C84B2B442F0DB24
:1010700000BF8021024800F018FA0128F9D070BDA5
:101080000030014008B510208DF803002020ADF895
:10109000000003208DF8020069460448FFF782FE35
:1010A00020210248FFF714FF08BD0000000C01409A
:1010B00070B5002100230F22C47804B3154C2468B6
:1010C00004F4E064C4F5E064210AC1F10403CA40F9
:1010D000447804FA03F184781440214309010E4C4A
:1010E0000678A155047804F01F050124AC4005786A
:1010F0006D11AD0005F1E025C5F8004109E0047867
:1011000004F01F050124AC40044D0678761145F823
:10111000264070BD0CED00E000E400E080E100E05E
:1011200002490143024A1160704700000000FA05BD
:101130000CED00E010B504462948007800B910BD58
:1011400028480068B0F5805F0CD226480168006826
:10115000401C244A1060244844540020224912684C
:10116000885406E002202149087000201C490870BC
:10117000E5E70A2C32D11B48006802282ED3194813
:101180000068801E1849085C0D2827D115480068A2
:1011900004280FD313490968091F134A8818042229
:1011A00013A1FFF710F828B10020104908700C496E
:1011B000087013E00B48006807280FD30949096835
:1011C000C91F094A881807220BA1FEF7FCFF28B1A6
:1011D00001200649087000200149087000BFAEE7F1
:1011E00028000020240000206C000020290000209E
:1011F0004F4B0D0A000000004552524F520D0A009D
:10120000014908627047000000000E4229B1064AF9
:1012100052690243044B5A6104E0034A5269824313
:10122000014B5A61704700000010024029B1064A84
:10123000D2690243044BDA6104E0034AD269824373
:10124000014BDA61704700000010024029B1064AE4
:1012500092690243044B9A6104E0034A9269824313
:10126000014B9A617047000000100240014908607C
:10127000704700004004424230B5002100220024A3
:1012800000232D4D6D6805F00C0121B1042905D016
:10129000082923D105E0294D056022E0274D05608E
:1012A0001FE0254D6D6805F47012234D6D6805F43F
:1012B0008034022505EB92421CB9214D554305604F
:1012C0000BE01D4D6D6805F400351DB11C4D5543F7
:1012D000056002E0194D5543056002E0174D0560B9
:1012E00000BF00BF144D6D6805F0F0010909154DF0
:1012F0006B5C0568DD4045600F4D6D6805F4E0618D
:10130000090A104D6B5C4568DD4085600A4D6D68CB
:1013100005F46051C90A0B4D6B5C4568DD40C56042
:10132000054D6D6805F44041890B074D6B5CC56840
:10133000B5FBF3F5056130BD0010024000127A00E4
:1013400000093D00580000206800002010B501464B
:101350000022002300204A11012A02D1094C2368EF
:1013600006E0022A02D1074C236A01E0054C636AB9
:1013700001F01F02012494401C400CB1012000E048
:10138000002010BD0010024000210B4A11700A4AD3
:10139000203A82F82010012802D0042808D103E066
:1013A0000121054A117004E00521034A117000E093
:1013B00000BF00BF704700002010024001490860D4
:1013C000704700003C0442420249096A0143014A55
:1013D00011627047001002400348008840F010007E
:1013E0000149088070470000042800400348008835
:1013F0004FF6EF710840014908807047042800400B
:1014000010B54FF48070FFF7DFFF0120FFF7D6FF24
:1014100000F024F800F018F847F6FF7000F004F828
:1014200000F012F810BD000000B50246FFF7D4FF2F
:10143000C2F3034003490880091D0A80FFF7D6FF65
:1014400000BD00000828004000BF0348008800F0ED
:1014500020000028F9D07047042800400748008881
:101460004FF6F77108400549088000BF034800881F
:1014700000F008000028F9D0704700000428004060
:1014800021B1028842F04002028004E002884FF657
:10149000BF731A40028070471AB183880B43838060
:1014A00002E083888B4383807047024600201389C3
:1014B0000B400BB1012000E0002070478181704794
:1014C00010B50022028802F441520B884C88234355
:1014D0008C882343CC8823430C8923434C892343A2
:1014E0008C892343CC8923431A430280838B4FF298
:1014F000FF74234083830B8A038210BD01200149BE
:10150000087070472A00002010B502210148FFF73B
:10151000DFFC10BD000C014070B5044619E014F862
:10152000016B14F8015BFF2E08D1FF2D00D111E0F3
:1015300005EB85014800FFF76EFA09E0304600F040
:1015400077F9002D03DD2946204600F07DF92C4473
:1015500000BFE4E700BF70BD2DE9F84F04460D461B
:1015600016461F46DDF828B0802C01DA802D01DBFD
:10157000BDE8F88FA019401E802802DBC4F180006E
:1015800086B2E819401E802802DBC5F1800087B2D0
:1015900000F0B8F805EB070CACF1010C0CF0FF0300
:1015A00004EB060CACF1010C0CF0FF02E9B2E0B266
:1015B00000F0B0F84FEA2B208DF800000BF0FF0090
:1015C0008DF801004FF400684FF000091EE006FBA3
:1015D00007F0A0EB090AC24500D9C246B9F1000FD5
:1015E0000ED10E48002108E09DF8002000F8012BE4
:1015F0009DF8012000F8012B491C5145F4D300BF90
:101600004FEA4A01054800F01FF9C14406FB07F004
:101610004845DCD800F0A8F800BFA9E76C1000200E
:1016200038B5044680231A46002108460094FFF787
:1016300093FF38BD08B503208DF8020010208DF807
:101640000300ADF8000069461648FFF7ABFB012226
:1016500010211448FFF73EFC4020ADF80000694619
:101660001048FFF79FFB002240210E48FFF732FC95
:101670001020ADF8000069460B48FFF793FB0022ED
:1016800010210948FFF726FC0220ADF8000069464A
:101690000648FFF787FB002202210448FFF71AFCE7
:1016A00008BD00000008014000100140000C01408E
:1016B00010B5FFF74DFC0848FFF78EFCFFF7BAFFA7
:1016C00000F00EF800F01EF80448FFF725FF00F0C8
:1016D0004BF8FFF719FF10BDFD140008D4260008D1
:1016E00010B510210648FFF7F1FB0220FFF793F930
:1016F00010210348FFF7ECFB9620FFF78CF910BD93
:101700000010014010B510210148FFF7DFFB10BDAC
:1017100000080140F8B507460C4615461E462A202B
:1017200000F086F800200090B81CC0B28DF80100CF
:10173000A81CC0B28DF803000421684600F084F8AC
:101740002B2000F075F8E01CC0B28DF80100F01CF1
:10175000C0B28DF803000421684600F075F82C2013
:1017600000F066F8F8BD000010B510210148FFF741
:10177000AFFB10BD000801402DE9F05F06460F46A3
:1017800090461D46DDE90A9AFFF7BCFF95F802C0B6
:10179000BC44ACF1010C0CF0FF0395F800C0B4445C
:1017A000ACF1010C0CF0FF02F9B2F0B2FFF7B2FF9E
:1017B0002988C81DC11700EB51714FEAE10B1B4C82
:1017C000002128E0688800FB08F06B6800FB0B3004
:1017D00001FB0B0200201AE002EBD00C9CF8003059
:1017E00000F0070C03FA0CFC0CF0800CBCF1000FAD
:1017F00006D04FEA292C04F801CB04F8019B05E040
:101800004FEA2A2C04F801CB04F801AB401C2B88CA
:101810008342E1D8491C68888842D3D80348211AFA
:1018200000F012F8FFF7A0FFBDE8F09F6C10002059
:1018300001B540210348FFF749FB01216846FFF746
:1018400003FC08BD0008014070B505460C46402168
:101850000748FFF73DFB002006490870A1B2284663
:10186000FFF7C0FB00BF034800780028FBD070BD25
:10187000000801402A0000202DE9FC4707460E46DB
:1018800015461C46DDE90A8937E028780A2805D183
:1018900000276088304486B26D1C2EE0287820280E
:1018A00011D120883844802808DB00276088304424
:1018B00086B260883044802800DB21E020883844EC
:1018C00087B26D1C19E020883844802808DB002787
:1018D0006088304486B260883044802800DB0FE0A6
:1018E000CDE900892A78234631463846FFF744FF80
:1018F0002088384487B26D1C00BF28780028C4D1E6
:1019000000BFBDE8FC8710B500F002F810BD000074
:101910000CB50020019000903348006840F48030FE
:101920003149086000BF3048006800F40030009082
:101930000198401C0190009818B90198B0F5A06F6B
:10194000F1D12948006800F4003010B10120009066
:1019500001E0002000900098012843D1234800684E
:1019600040F01000214908600846006820F0070098
:1019700008600846006840F0020008601A484068A5
:10198000194948600846406848600846406840F485
:10199000806048600846406820F47C104860084633
:1019A000406840F4E81048600846006840F08070E5
:1019B000086000BF0C48006800F000700028F9D0F3
:1019C0000948406820F0030007494860084640681D
:1019D00040F00200486000BF0348406800F00C007F
:1019E0000828F9D10CBD0000001002400020024080
:1019F00010B51348006840F001001149086008461E
:101A00004068104908400E494860084600680E4981
:101A100008400B4908600846006820F480200860F0
:101A20000846406820F4FE0048604FF41F008860BC
:101A3000FFF769FF4FF000600449086010BD000027
:101A4000001002400000FFF8FFFFF6FE08ED00E086
:101A500010B50121880700F012F848B1012188076C
:101A600000F00AF80348006810B102480068804797
:101A700010BD000020000020CA430282704730B52C
:101A80000246002000230024158A05EA01039589F7
:101A900005EA010413B10CB1012000E0002030BDC3
:101AA00010B540F22551094800F02DF801280BD15E
:101AB000064800F0E3F8C4B20548006818B12046B3
:101AC00003490968884700BF10BD0000004400407A
:101AD0001800002021B1828942F40052828104E082
:101AE00082894DF6FF731A408281704702460020BA
:101AF000B1F5007F00D100BF13880B400BB101206E
:101B000000E00020704770B5024600240023002545
:101B1000002040F66A16B14200D100BFC1F3421561
:101B200001F01F03012606FA03F3012D02D1968965
:101B3000334006E0022D02D1168A334001E0968A36
:101B400033400C12012606FA04F41688344013B10F
:101B50000CB1012000E0002070BDF0B50346002468
:101B600000260025002040F66A17B94200D100BFC8
:101B70001846C1F3421401F01F06012707FA06F5C3
:101B8000012C01D10C3004E0022C01D1103000E016
:101B900014301AB107682F43076002E00768AF43AB
:101BA0000760F0BD2DE9F04786B005460E460024DB
:101BB000A24600BFA1460027B08900B100BF2F4652
:101BC0002C8A4CF6FF700440F08804432C82AC89C8
:101BD0004EF6F3100440B0883189084371890843F8
:101BE0000443AC81AC8A4FF6FF400440B089044303
:101BF000AC8201A8FFF740FB1F48874202D1DDF805
:101C000010A001E0DDF80CA0A88900F4004040B16C
:101C10000AEBCA0000EB0A1031684900B0FBF1F88A
:101C200007E00AEBCA0000EB0A1031688900B0FB3C
:101C3000F1F86420B8FBF0F004012009642101FBF5
:101C40001089A88900F4004040B1322000EBC9009F
:101C5000B0FBF1F000F00700044308E0322000EB95
:101C600009106421B0FBF1F000F00F0004432C8157
:101C700006B0BDE8F08700000038014001468888C2
:101C8000C0F308007047C1F308028280704700006B
:101C90000FB41CB50A46521ECDE9000207A9054B38
:101CA0006A46069800F0CAF8009A002111701CBC20
:101CB0005DF814FB6B25000802E008C8121F08C17C
:101CC000002AFAD170477047002001E001C1121FBD
:101CD000002AFBD1704700002DE9FF5FDDE90220FB
:101CE000010DDDF838B0024318D044F61050A1F2CF
:101CF000FF3141430D140F98012820D0A5EB0B00B4
:101D0000401C5FEA000A4FF00004474EDFF81C91C8
:101D1000A046504616D5CAF1000728E00F980124C6
:101D200043A2012808D0002100980F9BC0E90021A0
:101D3000C0E90243BDE8FF9F6FEA0B01F4E7CBF176
:101D40000000DEE7074612E0F80707D022463346D8
:101D500040464946FEF732FB8046894622463346D6
:101D600010461946FEF72AFB04460E467F10002F48
:101D7000EAD1DDE90201BAF1000F42464B4602DA30
:101D8000FEF71CFB01E0FEF78BFB04460E4600222B
:101D9000284BFEF70DFC03D84FF0FF30014607E05B
:101DA0000022254B20463146FEF761FAFEF7E7FB9D
:101DB000102409E0002C0ADB0A220023FEF726FA91
:101DC000019B30321A55641E50EA0102F2D1641CA4
:101DD000019AC4F1110314440F9A012A03D001227D
:101DE00008430DD10AE0084304D000204FF0110B46
:101DF0000F9080E7A3EB0B056D1E0DE05B4504DD46
:101E00004FF0000205F1010504E003DA4FF0000293
:101E1000A5F10105002AECD000980F99C0E9023124
:101E2000C0E9004586E70000000024400000F03FC4
:101E3000300000000000F0430000E03F2DE9FF4FBC
:101E400095B09B468946064600250FE2252877D1A6
:101E500000242746F84A0121059400E0044316F8BF
:101E6000013F203B01FA03F01042F7D130782A28D5
:101E700011D06FF02F033078A0F13002092A16D864
:101E8000059A44F0020402EB820203EB4202104482
:101E9000761C0590EFE759F8042B0592002A03DA27
:101EA000504244F40054059044F00204761C30780B
:101EB0002E2816D116F8010F44F004042A280DD05C
:101EC0006FF02F023078A0F13003092B09D807EB0F
:101ED000870302EB4303C718761CF3E759F8047B2A
:101EE000761C30786C280FD006DC4C2817D0682878
:101EF0000DD06A2814D104E0742810D07A280FD1AC
:101F00000DE044F400140AE044F4801401E044F4C9
:101F100040147278824202D104F58014761C761C3B
:101F2000307866280BD013DC582877D009DC0028DD
:101F300075D04528F6D04628F4D047281AD19DE11F
:101F400018E0632835D0642879D0652812D195E14E
:101F5000702873D008DC6728F1D069286FD06E280C
:101F60000DD06F2806D1B5E073282CD0752875D018
:101F7000782874D05A46179990476D1C75E1C4F3C0
:101F80000250022809D003280DD0D9F800100428E7
:101F90000DD00D6009F1040967E1D9F80010EA17C6
:101FA000C1E90052F6E7D9F800100D80F2E70D7094
:101FB000F0E719F8041B8DF8001000208DF80100DF
:101FC000EA46012003E059F804AB4FF0FF30610707
:101FD0004FF0000102D40DE008F101018846B9423A
:101FE0000FDA8045F8DB1AF808100029F4D108E070
:101FF00008F1010188468142FADB1AF8081000292D
:10200000F6D105985B46A0EB080721463846179A9B
:1020100000F094FA284400EB080507E04DE029E1C0
:102020000DE01AF8010B5A4617999047B8F10108CC
:10203000F7D25B4621463846179A13E142E00A225E
:102040000092C4F302524FF0000A022A08D059F855
:1020500004CB032A4FEAEC710AD00DE029E02AE014
:1020600009F1070121F00702F2E802C1914609E0F7
:102070000FFA8CFC4FEAEC71042A03D14FFA8CFC66
:102080004FEAEC71002907DA0A460021DCF1000C66
:1020900061EB02012D2202E0220504D52B228DF8EE
:1020A0000420012203E0E20701D02022F7E7904656
:1020B00059E00A2102E010220DE010214FF0000A41
:1020C00000910BE010224FF0000A44F004040827AE
:1020D000009203E008224FF0000A0092C4F302527B
:1020E000022A05D059F804CB0021032A08D009E0C0
:1020F00009F1070121F00702F2E802C1914605E06B
:102100001FFA8CFC042A01D10CF0FF0C4FF00008E0
:10211000220728D5702806D0009B83F0100353EACD
:102120000A0305D00EE040228DF80420012208E0C9
:102130005CEA010206D030228DF804208DF80500FB
:1021400002229046009B83F0080353EA0A030AD157
:102150005CEA010201D1620705D530228DF8042026
:102160004FF001087F1E582804D034A003900EA819
:1021700002900DE036A0F9E753466046009AFEF75C
:1021800045F884460398825C0298401E02900270D3
:102190005CEA0100F0D1029806A9081A00F1200AB1
:1021A000600702D524F4803400E00127574502DDA2
:1021B000A7EB0A0000E0002000EB0A010090059860
:1021C0004144401A0590E00306D45B462146179A25
:1021D000059800F0B3F90544002706E001A85A4627
:1021E000C05D179990476D1C7F1C4745F6DBE003E7
:1021F0000CD55B462146179A059800F09FF90544D7
:1022000004E030205A46179990476D1C0099481EEB
:1022100000900029F5DC08E0029802995A460078FF
:10222000491C0291179990476D1CBAF10001AAF15F
:10223000010AF1DC65E10000092801003031323388
:1022400034353637383961626364656600000000F2
:1022500030313233343536373839414243444546DC
:102260000000000000F058F90544761C3078002882
:102270007FF4ECAD19B02846BDE8F08F620700D4BA
:10228000062709F1070222F0070CFCE80223E146C9
:1022900003F000485FEA080C02D00FF2702C0DE04A
:1022A0005FEA045C02D50FF2682C07E05FEAC47CA9
:1022B00002D00FF2602C01E0AFF2700C4FF0FF384B
:1022C00023F00043CDF850C065280CD006DC45282B
:1022D00009D046281DD047283DD13DE0662818D0BA
:1022E00067287ED138E00021112F01DB112000E0AA
:1022F000781CCDE9000106A90EA8FFF7EDFCDDE989
:102300000F010E9A03910021009207F1010A049136
:102310004DE04FF000400097CDE9011006A90EA84E
:10232000FFF7DAFCDDE90F0203920E9B1199002200
:10233000DDF80CA00093049211B9791C00EB010A9E
:10234000B7EB0A0004D4C0F1FF3007F1010A049092
:10235000AAEB0700019044E0012F00DA01270021D9
:10236000112F01DD112000E03846CDE9000106A95A
:102370000EA8FFF7B1FCDDE90F010E9A03910021D1
:1023800004910092BA4621070CD40399514500DA12
:102390008A46BAF1010F05DD009AAAF10101515CEC
:1023A000302908D0B84202DA10F1040F06DA012110
:1023B000CDE9011015E0AAF10101E9E7002805DCEB
:1023C000049901440491AAEB000102E0411C51452B
:1023D00000DD8A460499401A401C01904FF00040ED
:1023E0000290200704D40198504501DBCDF8048009
:1023F00000208DF84F0002980DF14F07B0F1004F0B
:1024000025D02B200E9002984FF0020800280CDAFD
:10241000404202902D200E9007E00A210298FDF71D
:10242000DFFE3031029007F8011DB8F10001A8F17C
:102430000108F2DC02980028EFD1791E0E9808708E
:10244000307800F0200040F0450007F8020D12A897
:10245000C01B00F107081498007800B1012000EBC0
:102460000A01019801EBE07105984144401A401EB1
:102470000590E00306D45B462146179A059800F0C4
:102480005DF805441498007818B15A46179990479A
:102490006D1CE00324D55B462146179A059800F091
:1024A0004DF805441CE00498002807DBDDE9030132
:1024B000884203DD0098405C179901E017993020AD
:1024C0005A469047049805F10105401C0490019874
:1024D000401E019004D12E205A46179990476D1C3A
:1024E000BAF10001AAF1010ADDDC05E017F8010BE1
:1024F0005A46179990476D1CB8F10001A8F10108E0
:10250000F4DC5B462146179A0598ABE62D000000E7
:102510002B000000200000002DE9F04104460025BA
:102520001E461746880404D405E039462020B047EB
:102530006D1C641EF9D52846BDE8F0812DE9F041F7
:10254000044600251E469046C80301D5302700E00A
:102550002027880404D505E041463846B0476D1C65
:10256000641EF9D52846BDE8F0814A68002A06D0E5
:102570000A68531C0B6010704868401E4860704722
:102580009EB0FEF7D5F8FEF77DFDFEF739FFFFF7A9
:102590008FF80020FFF744F84FF4FA60FEF73BFA9B
:1025A000FEF78AFA08B900BFFEE7FEF72BFB08B971
:1025B00000BFFEE71648016816480068FEF700FBFA
:1025C00008B900BFFEE700BF00BF00BF42F21073B2
:1025D00000220DA910480068FEF74AFA03A90D98D9
:1025E00000F028F80BA803A90CA30EA2CDE9001057
:1025F00040210EA8FFF74CFB00204FF6FF710C4B5B
:102600000EAACDE900100146FFF736F900BFFEE73C
:102610000400002000000020080000206D616F6DA4
:10262000696E670025732025732025734300000021
:102630002C0000202DE9F04180460F461EA14046A7
:10264000FDF792FD044614B90020BDE8F08108347E
:1026500022212046FDF7A6FD05460DB90020F4E72E
:102660002E1B202E00D31F26324621463846FDF76A
:102670008DFD0020B85513A14046FDF775FD0446B9
:102680000CB90020E1E70F3422212046FDF78AFD36
:1026900005460DB90020D8E72E1B082E00D30726CB
:1026A0003246214607F12000FDF770FD002107F1B9
:1026B000200081550120C8E72274657874223A22EF
:1026C000000000002274656D70657261747572653A
:1026D000223A22001100FF0CB103012C2DB203019C
:1026E0002C2DB306012C2D012C2DB40107C003A203
:1026F0000284C101C5C2020A00C3028A2AC4028A36
:10270000EEC5010E3601C8E0100F1A0F182F282051
:10271000221F1B233700070210E1100F1B0F173376
:102720002C292E3030393F000703102A0400000006
:102730007F2B040000009FF601003A01052900FFED
:10274000FF0000000000000000000000000000008A
:1027500000007F40404040404040404040407F00BB
:102760000000000000000000000000000000000069
:1027700000007F40404040404040404040407F009B
:1027800000007F40404040404040404040407F008B
:1027900000007F40404040404040404040407F007B
:1027A00000007F40404040404040404040407F006B
:1027B00000007F40404040404040404040407F005B
:1027C00000007F40404040404040404040407F004B
:1027D00000000000000000000000000000000000F9
:1027E00000000000000000000000000000000000E9
:1027F00000000000000000000000000000000000D9
:1028000000007F40404040404040404040407F000A
:1028100000007F40404040404040404040407F00FA
:1028200000007F40404040404040404040407F00EA
:1028300000007F40404040404040404040407F00DA
:1028400000007F40404040404040404040407F00CA
:1028500000007F40404040404040404040407F00BA
:1028600000007F40404040404040404040407F00AA
:1028700000007F40404040404040404040407F009A
:1028800000007F40404040404040404040407F008A
:1028900000007F40404040404040404040407F007A
:1028A00000007F40404040404040404040407F006A
:1028B00000007F40404040404040404040407F005A
:1028C00000007F40404040404040404040407F004A
:1028D00000007F40404040404040404040407F003A
:1028E00000007F40404040404040404040407F002A
:1028F00000007F40404040404040404040407F001A
:1029000000000000000000000000000000000000C7
:1029100000000000000000000000000000000000B7
:1029200000000000000000000000000000000000A7
:102930000000000000000000000000000000000097
:102940000000000000000000000000000000000087
:1029500000000000101010101010100000101000E7
:1029600000001224244800000000000000000000C5
:10297000000000001212127E2424247E242424004D
:10298000000000083C4A4A48380C0A0A4A4A3C08F7
:102990000800000044A4A8A8B0541A2A2A4A4400F7
:1029A0000000000030484848506EA4949889760092
:1029B0000000602020400000000000000000000037
:1029C000000002040808101010101010080804027B
:1029D00000004020101008080808080810102040C7
:1029E00000000000001010D63838D610100000008B
:1029F0000000000000000808087F08080800000028
:102A00000000000000000000000000000060202026
:102A10004000000000000000007E000000000000F8
:102A200000000000000000000000000000606000E6
:102A30000000000204040408081010102020404088
:102A40000000000018244242424242424224180040
:102A500000000000083808080808080808083E00B8
:102A6000000000003C4242420204081020427E0066
:102A7000000000003C4242020418040242423C00B2
:102A800000000000040C0C142424447F04041F00E4
:102A9000000000007E40404078440202424438007A
:102AA00000000000182440405C62424242221C00A8
:102AB000000000007E4204040808101010101000EE
:102AC000000000003C4242422418244242423C00A2
:102AD000000000003844424242463A0202241800F4
:102AE0000000000000000018180000000018180086
:102AF00000000000000000001000000000001010A6
:102B000010000000020408102040201008040200F9
:102B1000000000000000007E00007E0000000000B9
:102B200000000000402010080402040810204000AB
:102B3000000000003C424262040808080018180027
:102B40000000000038445AAAAAAAAAAA5C423C0083
:102B5000000000001010182828243C444242E700DE
:102B600000000000F8444444784442424244F800E3
:102B7000000000003E424280808080804244380055
:102B800000000000F8444242424242424244F800FF
:102B900000000000FC424848784848404242FC009F
:102BA00000000000FC424848784848404040E000AF
:102BB000000000003C44448080808E8444443800FF
:102BC00000000000E7424242427E42424242E700A9
:102BD000000000007C1010101010101010107C006D
:102BE000000000003E0808080808080808080888CF
:102BF000F0000000EE444850705048484444EE0055
:102C000000000000E0404040404040404042FE00A4
:102C100000000000EE6C6C6C6C6C54545454D60084
:102C200000000000C7626252524A4A4A4646E20029
:102C3000000000003844828282828282824438000E
:102C400000000000FC424242427C40404040E00024
:102C5000000000003844828282828282B24C3806B0
:102C600000000000FC4242427C4848444442E300E9
:102C7000000000003E4242402018040242427C0014
:102C800000000000FE9210101010101010103800FC
:102C900000000000E74242424242424242423C00BF
:102CA00000000000E74242442424282818101000A5
:102CB00000000000D654545454546C28282828008E
:102CC00000000000E7422424181818242442E700DA
:102CD00000000000EE4444282810101010103800A6
:102CE000000000007E840408081020204242FC00FE
:102CF00000001E1010101010101010101010101ED8
:102D000000000040202020101010080804040402D5
:102D10000200780808080808080808080808087861
:102D20000000182400000000000000000000000067
:102D30000000000000000000000000000000000093
:102D4000FF00601000000000000000000000000014
:102D5000000000000000000038440C34444C3600F1
:102D60000000000000C040405864424242645800E5
:102D700000000000000000001C22404040221C0017
:102D800000000000000602023E42424242463B0072
:102D900000000000000000003C42427E40423C0037
:102DA00000000000000C12107C10101010107C00AD
:102DB00000000000000000003E444438403C424215
:102DC0003C00000000C040405C6242424242E700DA
:102DD00000000000303000007010101010107C0057
:102DE000000000000C0C00001C0404040404044453
:102DF0007800000000C040404E4850704844EE004B
:102E000000000000107010101010101010107C0046
:102E10000000000000000000FE4949494949ED005A
:102E20000000000000000000DC6242424242E70075
:102E300000000000000000003C42424242423C00D0
:102E40000000000000000000D86442424264584084
:102E5000E0000000000000001A26424242261A024A
:102E60000700000000000000EE3220202020F800C3
:102E700000000000000000003E42403C02427C0096
:102E800000000000000010107C10101010120C0048
:102E90000000000000000000C642424242463B00E3
:102EA0000000000000000000EE444428281010003C
:102EB0000000000000000000DB894A5A542424006E
:102EC00000000000000000007624181818246E008E
:102ED0000000000000000000E74224241818101031
:102EE00060000000000000007E44081010227E00F8
:102EF0000000030404040404040804040404040398
:102F00000008080808080808080808080808080849
:102F10000800C0202020202020102020202020C0B9
:102F200000205A0400000000000000000000000023
:102F30000000000000000000000000000000000091
:102F40000008800880088011FE11023204342050ED
:102F50002091281124122412221422102010A010D3
:102F600040100010FC10041008FC10242024202520
:102F7000FE24204820282010202820442084A0005F
:102F80004002201220122012201220FFFE122012D6
:102F9000201220122013E01000100010001FFC006F
:102FA0000000001FF0111011101FF0111011101F60
:102FB000F002800C603458C44604400840084010B9
:102FC00040000000787970303632322E0000000068
:102FD0004833435F3430310068747470733A2F2F74
:102FE0006170692E73656E6976657273652E636FA5
:102FF0006D2F76332F776561746865722F6E6F77EA
:103000002E6A736F6E3F6B65793D53736B4E7837E5
:10301000412D3342726B4A6A757478266C6F636116
:1030200074696F6E3D6D616F6D696E67266C616E60
:1030300067756167653D656E26756E69743D6300F1
:1030400060300008000000206C000000B81C000880
:10305000CC3000086C00002004240000C81C0008CC
:10306000D02F0008C42F0008D82F0008000000004F
:103070000000000000000000000000000000000050
:103080000000000000000000000000000800100028
:10309000412700080000000010001000412F000828
:1030A0000400000000A24A0400000000000000002C
:1030B00001020304060708090000000001020304DE
:0C30C000010203040607080902040608C8
:0400000508000131BD
:00000001FF
